{
  "_format": "hh-sol-artifact-1",
  "contractName": "HostMock",
  "sourceName": "contracts/mocks/SuperfluidCFAHostMocks.sol",
  "abi": [
    {
      "inputs": [
        {
          "internalType": "address",
          "name": "_cfa",
          "type": "address"
        }
      ],
      "stateMutability": "nonpayable",
      "type": "constructor"
    },
    {
      "inputs": [],
      "name": "CFA_ID",
      "outputs": [
        {
          "internalType": "bytes32",
          "name": "",
          "type": "bytes32"
        }
      ],
      "stateMutability": "view",
      "type": "function"
    },
    {
      "inputs": [
        {
          "internalType": "address",
          "name": "agreementClass",
          "type": "address"
        },
        {
          "internalType": "bytes",
          "name": "callData",
          "type": "bytes"
        },
        {
          "internalType": "bytes",
          "name": "",
          "type": "bytes"
        }
      ],
      "name": "callAgreement",
      "outputs": [
        {
          "internalType": "bytes",
          "name": "",
          "type": "bytes"
        }
      ],
      "stateMutability": "nonpayable",
      "type": "function"
    },
    {
      "inputs": [],
      "name": "cfa",
      "outputs": [
        {
          "internalType": "address",
          "name": "",
          "type": "address"
        }
      ],
      "stateMutability": "view",
      "type": "function"
    },
    {
      "inputs": [
        {
          "internalType": "bytes32",
          "name": "agreementType",
          "type": "bytes32"
        }
      ],
      "name": "getAgreementClass",
      "outputs": [
        {
          "internalType": "address",
          "name": "",
          "type": "address"
        }
      ],
      "stateMutability": "view",
      "type": "function"
    }
  ],
  "bytecode": "0x608060405234801561001057600080fd5b50604051610ac4380380610ac4833981810160405281019061003291906100db565b806000806101000a81548173ffffffffffffffffffffffffffffffffffffffff021916908373ffffffffffffffffffffffffffffffffffffffff16021790555050610108565b600080fd5b600073ffffffffffffffffffffffffffffffffffffffff82169050919050565b60006100a88261007d565b9050919050565b6100b88161009d565b81146100c357600080fd5b50565b6000815190506100d5816100af565b92915050565b6000602082840312156100f1576100f0610078565b5b60006100ff848285016100c6565b91505092915050565b6109ad806101176000396000f3fe608060405234801561001057600080fd5b506004361061004c5760003560e01c80631054df8c14610051578063215eed021461006f57806339255d5b1461008d578063b6d200de146100bd575b600080fd5b6100596100ed565b604051610066919061048c565b60405180910390f35b610077610111565b60405161008491906104c0565b60405180910390f35b6100a760048036038101906100a29190610576565b610135565b6040516100b4919061069b565b60405180910390f35b6100d760048036038101906100d291906106e9565b6103bf565b6040516100e4919061048c565b60405180910390f35b60008054906101000a900473ffffffffffffffffffffffffffffffffffffffff1681565b7fa9214cc96615e0085d3bb077758db69497dc2dce3b2b1e97bc93c3d18d83efd381565b606060008054906101000a900473ffffffffffffffffffffffffffffffffffffffff1673ffffffffffffffffffffffffffffffffffffffff168673ffffffffffffffffffffffffffffffffffffffff16146101c5576040517f08c379a00000000000000000000000000000000000000000000000000000000081526004016101bc90610773565b60405180910390fd5b60008673ffffffffffffffffffffffffffffffffffffffff16336040516024016101ef919061048c565b6040516020818303038152906040527fcdb47d2e000000000000000000000000000000000000000000000000000000007bffffffffffffffffffffffffffffffffffffffffffffffffffffffff19166020820180517bffffffffffffffffffffffffffffffffffffffffffffffffffffffff838183161783525050505060405161027991906107cf565b6000604051808303816000865af19150503d80600081146102b6576040519150601f19603f3d011682016040523d82523d6000602084013e6102bb565b606091505b50509050806102ff576040517f08c379a00000000000000000000000000000000000000000000000000000000081526004016102f690610832565b60405180910390fd5b6000808873ffffffffffffffffffffffffffffffffffffffff168888604051610329929190610886565b6000604051808303816000865af19150503d8060008114610366576040519150601f19603f3d011682016040523d82523d6000602084013e61036b565b606091505b5091509150816103b0576040517f08c379a00000000000000000000000000000000000000000000000000000000081526004016103a7906108eb565b60405180910390fd5b80935050505095945050505050565b60007fa9214cc96615e0085d3bb077758db69497dc2dce3b2b1e97bc93c3d18d83efd38214610423576040517f08c379a000000000000000000000000000000000000000000000000000000000815260040161041a90610957565b60405180910390fd5b60008054906101000a900473ffffffffffffffffffffffffffffffffffffffff169050919050565b600073ffffffffffffffffffffffffffffffffffffffff82169050919050565b60006104768261044b565b9050919050565b6104868161046b565b82525050565b60006020820190506104a1600083018461047d565b92915050565b6000819050919050565b6104ba816104a7565b82525050565b60006020820190506104d560008301846104b1565b92915050565b600080fd5b600080fd5b6104ee8161046b565b81146104f957600080fd5b50565b60008135905061050b816104e5565b92915050565b600080fd5b600080fd5b600080fd5b60008083601f84011261053657610535610511565b5b8235905067ffffffffffffffff81111561055357610552610516565b5b60208301915083600182028301111561056f5761056e61051b565b5b9250929050565b600080600080600060608688031215610592576105916104db565b5b60006105a0888289016104fc565b955050602086013567ffffffffffffffff8111156105c1576105c06104e0565b5b6105cd88828901610520565b9450945050604086013567ffffffffffffffff8111156105f0576105ef6104e0565b5b6105fc88828901610520565b92509250509295509295909350565b600081519050919050565b600082825260208201905092915050565b60005b8381101561064557808201518184015260208101905061062a565b60008484015250505050565b6000601f19601f8301169050919050565b600061066d8261060b565b6106778185610616565b9350610687818560208601610627565b61069081610651565b840191505092915050565b600060208201905081810360008301526106b58184610662565b905092915050565b6106c6816104a7565b81146106d157600080fd5b50565b6000813590506106e3816106bd565b92915050565b6000602082840312156106ff576106fe6104db565b5b600061070d848285016106d4565b91505092915050565b600082825260208201905092915050565b7f62616420636c6173730000000000000000000000000000000000000000000000600082015250565b600061075d600983610716565b915061076882610727565b602082019050919050565b6000602082019050818103600083015261078c81610750565b9050919050565b600081905092915050565b60006107a98261060b565b6107b38185610793565b93506107c3818560208601610627565b80840191505092915050565b60006107db828461079e565b915081905092915050565b7f746d7053656e6465720000000000000000000000000000000000000000000000600082015250565b600061081c600983610716565b9150610827826107e6565b602082019050919050565b6000602082019050818103600083015261084b8161080f565b9050919050565b82818337600083830152505050565b600061086d8385610793565b935061087a838584610852565b82840190509392505050565b6000610893828486610861565b91508190509392505050565b7f63616c6c41677265656d656e74206661696c6564000000000000000000000000600082015250565b60006108d5601483610716565b91506108e08261089f565b602082019050919050565b60006020820190508181036000830152610904816108c8565b9050919050565b7f6261642069640000000000000000000000000000000000000000000000000000600082015250565b6000610941600683610716565b915061094c8261090b565b602082019050919050565b6000602082019050818103600083015261097081610934565b905091905056fea2646970667358221220b13a284fd22378ab72a3f9bc7d1f24e8acbdc3d3db85bced76a78bf1c009762664736f6c634300081c0033",
  "linkReferences": {},
  "deployedLinkReferences": {}
}