{
  "_format": "hh-sol-artifact-1",
  "contractName": "RewardsManager",
  "sourceName": "contracts/rewards/RewardsManager.sol",
  "abi": [
    {
      "inputs": [
        {
          "internalType": "address",
          "name": "_sendx",
          "type": "address"
        },
        {
          "internalType": "address",
          "name": "_sendEarnFactory",
          "type": "address"
        },
        {
          "internalType": "address",
          "name": "_asset",
          "type": "address"
        },
        {
          "internalType": "address",
          "name": "admin",
          "type": "address"
        },
        {
          "internalType": "uint256",
          "name": "_minAssets",
          "type": "uint256"
        }
      ],
      "stateMutability": "nonpayable",
      "type": "constructor"
    },
    {
      "inputs": [],
      "name": "AccessControlBadConfirmation",
      "type": "error"
    },
    {
      "inputs": [
        {
          "internalType": "address",
          "name": "account",
          "type": "address"
        },
        {
          "internalType": "bytes32",
          "name": "neededRole",
          "type": "bytes32"
        }
      ],
      "name": "AccessControlUnauthorizedAccount",
      "type": "error"
    },
    {
      "inputs": [
        {
          "internalType": "uint8",
          "name": "bits",
          "type": "uint8"
        },
        {
          "internalType": "uint256",
          "name": "value",
          "type": "uint256"
        }
      ],
      "name": "SafeCastOverflowedUintDowncast",
      "type": "error"
    },
    {
      "anonymous": false,
      "inputs": [
        {
          "indexed": false,
          "internalType": "uint256",
          "name": "oldMin",
          "type": "uint256"
        },
        {
          "indexed": false,
          "internalType": "uint256",
          "name": "newMin",
          "type": "uint256"
        }
      ],
      "name": "MinAssetsUpdated",
      "type": "event"
    },
    {
      "anonymous": false,
      "inputs": [
        {
          "indexed": true,
          "internalType": "address",
          "name": "admin",
          "type": "address"
        },
        {
          "indexed": true,
          "internalType": "contract ISuperfluidToken",
          "name": "token",
          "type": "address"
        },
        {
          "indexed": true,
          "internalType": "contract ISuperfluidPool",
          "name": "pool",
          "type": "address"
        }
      ],
      "name": "PoolCreated",
      "type": "event"
    },
    {
      "anonymous": false,
      "inputs": [
        {
          "indexed": true,
          "internalType": "bytes32",
          "name": "role",
          "type": "bytes32"
        },
        {
          "indexed": true,
          "internalType": "bytes32",
          "name": "previousAdminRole",
          "type": "bytes32"
        },
        {
          "indexed": true,
          "internalType": "bytes32",
          "name": "newAdminRole",
          "type": "bytes32"
        }
      ],
      "name": "RoleAdminChanged",
      "type": "event"
    },
    {
      "anonymous": false,
      "inputs": [
        {
          "indexed": true,
          "internalType": "bytes32",
          "name": "role",
          "type": "bytes32"
        },
        {
          "indexed": true,
          "internalType": "address",
          "name": "account",
          "type": "address"
        },
        {
          "indexed": true,
          "internalType": "address",
          "name": "sender",
          "type": "address"
        }
      ],
      "name": "RoleGranted",
      "type": "event"
    },
    {
      "anonymous": false,
      "inputs": [
        {
          "indexed": true,
          "internalType": "bytes32",
          "name": "role",
          "type": "bytes32"
        },
        {
          "indexed": true,
          "internalType": "address",
          "name": "account",
          "type": "address"
        },
        {
          "indexed": true,
          "internalType": "address",
          "name": "sender",
          "type": "address"
        }
      ],
      "name": "RoleRevoked",
      "type": "event"
    },
    {
      "anonymous": false,
      "inputs": [
        {
          "indexed": true,
          "internalType": "address",
          "name": "who",
          "type": "address"
        },
        {
          "indexed": true,
          "internalType": "address",
          "name": "vault",
          "type": "address"
        },
        {
          "indexed": false,
          "internalType": "uint256",
          "name": "assets",
          "type": "uint256"
        },
        {
          "indexed": false,
          "internalType": "uint128",
          "name": "newUnits",
          "type": "uint128"
        }
      ],
      "name": "SyncedVault",
      "type": "event"
    },
    {
      "inputs": [],
      "name": "DEFAULT_ADMIN_ROLE",
      "outputs": [
        {
          "internalType": "bytes32",
          "name": "",
          "type": "bytes32"
        }
      ],
      "stateMutability": "view",
      "type": "function"
    },
    {
      "inputs": [],
      "name": "SEND_ACCOUNT_ROLE",
      "outputs": [
        {
          "internalType": "bytes32",
          "name": "",
          "type": "bytes32"
        }
      ],
      "stateMutability": "view",
      "type": "function"
    },
    {
      "inputs": [],
      "name": "SYNC_OPERATOR_ROLE",
      "outputs": [
        {
          "internalType": "bytes32",
          "name": "",
          "type": "bytes32"
        }
      ],
      "stateMutability": "view",
      "type": "function"
    },
    {
      "inputs": [],
      "name": "asset",
      "outputs": [
        {
          "internalType": "contract IERC20",
          "name": "",
          "type": "address"
        }
      ],
      "stateMutability": "view",
      "type": "function"
    },
    {
      "inputs": [
        {
          "internalType": "address[]",
          "name": "vaults",
          "type": "address[]"
        }
      ],
      "name": "batchSyncVaults",
      "outputs": [],
      "stateMutability": "nonpayable",
      "type": "function"
    },
    {
      "inputs": [
        {
          "internalType": "address[]",
          "name": "vaults",
          "type": "address[]"
        },
        {
          "internalType": "address",
          "name": "who",
          "type": "address"
        }
      ],
      "name": "batchSyncVaults",
      "outputs": [],
      "stateMutability": "nonpayable",
      "type": "function"
    },
    {
      "inputs": [
        {
          "internalType": "bytes32",
          "name": "role",
          "type": "bytes32"
        }
      ],
      "name": "getRoleAdmin",
      "outputs": [
        {
          "internalType": "bytes32",
          "name": "",
          "type": "bytes32"
        }
      ],
      "stateMutability": "view",
      "type": "function"
    },
    {
      "inputs": [
        {
          "internalType": "uint256",
          "name": "index",
          "type": "uint256"
        }
      ],
      "name": "getTrackedUserAt",
      "outputs": [
        {
          "internalType": "address",
          "name": "",
          "type": "address"
        }
      ],
      "stateMutability": "view",
      "type": "function"
    },
    {
      "inputs": [],
      "name": "getTrackedUserCount",
      "outputs": [
        {
          "internalType": "uint256",
          "name": "",
          "type": "uint256"
        }
      ],
      "stateMutability": "view",
      "type": "function"
    },
    {
      "inputs": [
        {
          "internalType": "address",
          "name": "who",
          "type": "address"
        },
        {
          "internalType": "uint256",
          "name": "index",
          "type": "uint256"
        }
      ],
      "name": "getUserVaultAt",
      "outputs": [
        {
          "internalType": "address",
          "name": "",
          "type": "address"
        }
      ],
      "stateMutability": "view",
      "type": "function"
    },
    {
      "inputs": [
        {
          "internalType": "address",
          "name": "who",
          "type": "address"
        }
      ],
      "name": "getUserVaultCount",
      "outputs": [
        {
          "internalType": "uint256",
          "name": "",
          "type": "uint256"
        }
      ],
      "stateMutability": "view",
      "type": "function"
    },
    {
      "inputs": [
        {
          "internalType": "bytes32",
          "name": "role",
          "type": "bytes32"
        },
        {
          "internalType": "address",
          "name": "account",
          "type": "address"
        }
      ],
      "name": "grantRole",
      "outputs": [],
      "stateMutability": "nonpayable",
      "type": "function"
    },
    {
      "inputs": [
        {
          "internalType": "bytes32",
          "name": "role",
          "type": "bytes32"
        },
        {
          "internalType": "address",
          "name": "account",
          "type": "address"
        }
      ],
      "name": "hasRole",
      "outputs": [
        {
          "internalType": "bool",
          "name": "",
          "type": "bool"
        }
      ],
      "stateMutability": "view",
      "type": "function"
    },
    {
      "inputs": [
        {
          "internalType": "address",
          "name": "",
          "type": "address"
        },
        {
          "internalType": "address",
          "name": "",
          "type": "address"
        }
      ],
      "name": "lastAssetsByVault",
      "outputs": [
        {
          "internalType": "uint256",
          "name": "",
          "type": "uint256"
        }
      ],
      "stateMutability": "view",
      "type": "function"
    },
    {
      "inputs": [],
      "name": "minAssets",
      "outputs": [
        {
          "internalType": "uint256",
          "name": "",
          "type": "uint256"
        }
      ],
      "stateMutability": "view",
      "type": "function"
    },
    {
      "inputs": [],
      "name": "pool",
      "outputs": [
        {
          "internalType": "contract ISuperfluidPool",
          "name": "",
          "type": "address"
        }
      ],
      "stateMutability": "view",
      "type": "function"
    },
    {
      "inputs": [
        {
          "internalType": "bytes32",
          "name": "role",
          "type": "bytes32"
        },
        {
          "internalType": "address",
          "name": "callerConfirmation",
          "type": "address"
        }
      ],
      "name": "renounceRole",
      "outputs": [],
      "stateMutability": "nonpayable",
      "type": "function"
    },
    {
      "inputs": [
        {
          "internalType": "bytes32",
          "name": "role",
          "type": "bytes32"
        },
        {
          "internalType": "address",
          "name": "account",
          "type": "address"
        }
      ],
      "name": "revokeRole",
      "outputs": [],
      "stateMutability": "nonpayable",
      "type": "function"
    },
    {
      "inputs": [],
      "name": "sendEarnFactory",
      "outputs": [
        {
          "internalType": "contract IMinimalSendEarnFactory",
          "name": "",
          "type": "address"
        }
      ],
      "stateMutability": "view",
      "type": "function"
    },
    {
      "inputs": [],
      "name": "sendx",
      "outputs": [
        {
          "internalType": "contract ISuperfluidToken",
          "name": "",
          "type": "address"
        }
      ],
      "stateMutability": "view",
      "type": "function"
    },
    {
      "inputs": [
        {
          "internalType": "uint256",
          "name": "newMin",
          "type": "uint256"
        }
      ],
      "name": "setMinAssets",
      "outputs": [],
      "stateMutability": "nonpayable",
      "type": "function"
    },
    {
      "inputs": [
        {
          "internalType": "bytes4",
          "name": "interfaceId",
          "type": "bytes4"
        }
      ],
      "name": "supportsInterface",
      "outputs": [
        {
          "internalType": "bool",
          "name": "",
          "type": "bool"
        }
      ],
      "stateMutability": "view",
      "type": "function"
    },
    {
      "inputs": [
        {
          "internalType": "address",
          "name": "who",
          "type": "address"
        },
        {
          "internalType": "uint256",
          "name": "start",
          "type": "uint256"
        },
        {
          "internalType": "uint256",
          "name": "count",
          "type": "uint256"
        }
      ],
      "name": "syncUserVaults",
      "outputs": [],
      "stateMutability": "nonpayable",
      "type": "function"
    },
    {
      "inputs": [
        {
          "internalType": "uint256",
          "name": "start",
          "type": "uint256"
        },
        {
          "internalType": "uint256",
          "name": "count",
          "type": "uint256"
        }
      ],
      "name": "syncUsersRange",
      "outputs": [],
      "stateMutability": "nonpayable",
      "type": "function"
    },
    {
      "inputs": [
        {
          "internalType": "address",
          "name": "vault",
          "type": "address"
        }
      ],
      "name": "syncVault",
      "outputs": [],
      "stateMutability": "nonpayable",
      "type": "function"
    },
    {
      "inputs": [
        {
          "internalType": "address",
          "name": "vault",
          "type": "address"
        },
        {
          "internalType": "address",
          "name": "who",
          "type": "address"
        }
      ],
      "name": "syncVault",
      "outputs": [],
      "stateMutability": "nonpayable",
      "type": "function"
    },
    {
      "inputs": [
        {
          "internalType": "address",
          "name": "",
          "type": "address"
        }
      ],
      "name": "totalAssetsByUser",
      "outputs": [
        {
          "internalType": "uint256",
          "name": "",
          "type": "uint256"
        }
      ],
      "stateMutability": "view",
      "type": "function"
    }
  ],
  "bytecode": "0x61010060405234801561001157600080fd5b5060405161321b38038061321b8339818101604052810190610033919061075a565b600073ffffffffffffffffffffffffffffffffffffffff168573ffffffffffffffffffffffffffffffffffffffff16036100a2576040517f08c379a000000000000000000000000000000000000000000000000000000000815260040161009990610832565b60405180910390fd5b600073ffffffffffffffffffffffffffffffffffffffff168473ffffffffffffffffffffffffffffffffffffffff1603610111576040517f08c379a00000000000000000000000000000000000000000000000000000000081526004016101089061089e565b60405180910390fd5b600073ffffffffffffffffffffffffffffffffffffffff168373ffffffffffffffffffffffffffffffffffffffff1603610180576040517f08c379a00000000000000000000000000000000000000000000000000000000081526004016101779061090a565b60405180910390fd5b600073ffffffffffffffffffffffffffffffffffffffff168273ffffffffffffffffffffffffffffffffffffffff16036101ef576040517f08c379a00000000000000000000000000000000000000000000000000000000081526004016101e690610976565b60405180910390fd5b60008111610232576040517f08c379a0000000000000000000000000000000000000000000000000000000008152600401610229906109e2565b60405180910390fd5b8473ffffffffffffffffffffffffffffffffffffffff1660808173ffffffffffffffffffffffffffffffffffffffff16815250508273ffffffffffffffffffffffffffffffffffffffff1660a08173ffffffffffffffffffffffffffffffffffffffff16815250508373ffffffffffffffffffffffffffffffffffffffff1660e08173ffffffffffffffffffffffffffffffffffffffff168152505080600181905550600060805173ffffffffffffffffffffffffffffffffffffffff166320bc44256040518163ffffffff1660e01b8152600401602060405180830381865afa158015610324573d6000803e3d6000fd5b505050506040513d601f19601f820116820180604052508101906103489190610a02565b905060008173ffffffffffffffffffffffffffffffffffffffff1663b6d200de7fdfd8ece9bfbcb8c5c540edb935641f63d67686490a1ab97f000288759f30a9466040518263ffffffff1660e01b81526004016103a59190610a48565b602060405180830381865afa1580156103c2573d6000803e3d6000fd5b505050506040513d601f19601f820116820180604052508101906103e69190610a02565b905060008190508073ffffffffffffffffffffffffffffffffffffffff16630779d365608051306040518060400160405280600015158152602001600115158152506040518463ffffffff1660e01b815260040161044693929190610b1b565b6020604051808303816000875af1158015610465573d6000803e3d6000fd5b505050506040513d601f19601f820116820180604052508101906104899190610b90565b73ffffffffffffffffffffffffffffffffffffffff1660c08173ffffffffffffffffffffffffffffffffffffffff16815250506104cf6000801b8661055260201b60201c565b5060c05173ffffffffffffffffffffffffffffffffffffffff1660805173ffffffffffffffffffffffffffffffffffffffff168673ffffffffffffffffffffffffffffffffffffffff167f9c5d829b9b23efc461f9aeef91979ec04bb903feb3bee4f26d22114abfc7335b60405160405180910390a45050505050505050610bbd565b6000610564838361064f60201b60201c565b61064457600160008085815260200190815260200160002060000160008473ffffffffffffffffffffffffffffffffffffffff1673ffffffffffffffffffffffffffffffffffffffff16815260200190815260200160002060006101000a81548160ff0219169083151502179055506105e16106b960201b60201c565b73ffffffffffffffffffffffffffffffffffffffff168273ffffffffffffffffffffffffffffffffffffffff16847f2f8788117e7eff1d82e926ec794901d17c78024a50270940304540a733656f0d60405160405180910390a460019050610649565b600090505b92915050565b600080600084815260200190815260200160002060000160008373ffffffffffffffffffffffffffffffffffffffff1673ffffffffffffffffffffffffffffffffffffffff16815260200190815260200160002060009054906101000a900460ff16905092915050565b600033905090565b600080fd5b600073ffffffffffffffffffffffffffffffffffffffff82169050919050565b60006106f1826106c6565b9050919050565b610701816106e6565b811461070c57600080fd5b50565b60008151905061071e816106f8565b92915050565b6000819050919050565b61073781610724565b811461074257600080fd5b50565b6000815190506107548161072e565b92915050565b600080600080600060a08688031215610776576107756106c1565b5b60006107848882890161070f565b95505060206107958882890161070f565b94505060406107a68882890161070f565b93505060606107b78882890161070f565b92505060806107c888828901610745565b9150509295509295909350565b600082825260208201905092915050565b7f73656e6478000000000000000000000000000000000000000000000000000000600082015250565b600061081c6005836107d5565b9150610827826107e6565b602082019050919050565b6000602082019050818103600083015261084b8161080f565b9050919050565b7f73656e644561726e466163746f72790000000000000000000000000000000000600082015250565b6000610888600f836107d5565b915061089382610852565b602082019050919050565b600060208201905081810360008301526108b78161087b565b9050919050565b7f6173736574000000000000000000000000000000000000000000000000000000600082015250565b60006108f46005836107d5565b91506108ff826108be565b602082019050919050565b60006020820190508181036000830152610923816108e7565b9050919050565b7f61646d696e000000000000000000000000000000000000000000000000000000600082015250565b60006109606005836107d5565b915061096b8261092a565b602082019050919050565b6000602082019050818103600083015261098f81610953565b9050919050565b7f6d696e4173736574730000000000000000000000000000000000000000000000600082015250565b60006109cc6009836107d5565b91506109d782610996565b602082019050919050565b600060208201905081810360008301526109fb816109bf565b9050919050565b600060208284031215610a1857610a176106c1565b5b6000610a268482850161070f565b91505092915050565b6000819050919050565b610a4281610a2f565b82525050565b6000602082019050610a5d6000830184610a39565b92915050565b6000819050919050565b6000610a88610a83610a7e846106c6565b610a63565b6106c6565b9050919050565b6000610a9a82610a6d565b9050919050565b6000610aac82610a8f565b9050919050565b610abc81610aa1565b82525050565b610acb816106e6565b82525050565b60008115159050919050565b610ae681610ad1565b82525050565b604082016000820151610b026000850182610add565b506020820151610b156020850182610add565b50505050565b6000608082019050610b306000830186610ab3565b610b3d6020830185610ac2565b610b4a6040830184610aec565b949350505050565b6000610b5d826106e6565b9050919050565b610b6d81610b52565b8114610b7857600080fd5b50565b600081519050610b8a81610b64565b92915050565b600060208284031215610ba657610ba56106c1565b5b6000610bb484828501610b7b565b91505092915050565b60805160a05160c05160e051612609610c126000396000818161071001528181610f7d01526110260152600081816105d001526116e20152600081816106c80152611136015260006107df01526126096000f3fe608060405234801561001057600080fd5b50600436106101a95760003560e01c8063755d808b116100f9578063a58d1fa511610097578063d050fd0411610071578063d050fd04146104e0578063d1dac6e1146104fe578063d547741f1461051c578063debdd89f14610538576101a9565b8063a58d1fa514610478578063b40a69c114610494578063ca9be860146104c4576101a9565b80638804c631116100d35780638804c631146103dc57806391d14854146103fa578063a217fddf1461042a578063a3ac248b14610448576101a9565b8063755d808b14610374578063795c393b14610390578063828edbe8146103ac576101a9565b806338d52e0f11610166578063493ba22811610140578063493ba228146102ee57806362dd55d61461031e578063665baee71461033a57806367eaa5cf14610356576101a9565b806338d52e0f1461029457806340a48ba5146102b257806343d20229146102d0576101a9565b806301ffc9a7146101ae57806316f0115b146101de5780631e8a4955146101fc578063248a9ca31461022c5780632f2ff15d1461025c57806336568abe14610278575b600080fd5b6101c860048036038101906101c39190611ba7565b610554565b6040516101d59190611bef565b60405180910390f35b6101e66105ce565b6040516101f39190611c89565b60405180910390f35b61021660048036038101906102119190611ce2565b6105f2565b6040516102239190611d28565b60405180910390f35b61024660048036038101906102419190611d79565b61060a565b6040516102539190611db5565b60405180910390f35b61027660048036038101906102719190611dd0565b610629565b005b610292600480360381019061028d9190611dd0565b61064b565b005b61029c6106c6565b6040516102a99190611e31565b60405180910390f35b6102ba6106ea565b6040516102c79190611db5565b60405180910390f35b6102d861070e565b6040516102e59190611e6d565b60405180910390f35b61030860048036038101906103039190611e88565b610732565b6040516103159190611d28565b60405180910390f35b61033860048036038101906103339190611ce2565b610757565b005b610354600480360381019061034f9190611f2d565b610772565b005b61035e6107dd565b60405161036b9190611f9b565b60405180910390f35b61038e60048036038101906103899190611fb6565b610801565b005b6103aa60048036038101906103a59190612042565b610867565b005b6103c660048036038101906103c19190611ce2565b61099f565b6040516103d39190611d28565b60405180910390f35b6103e46109ef565b6040516103f19190611d28565b60405180910390f35b610414600480360381019061040f9190611dd0565b610a00565b6040516104219190611bef565b60405180910390f35b610432610a6a565b60405161043f9190611db5565b60405180910390f35b610462600480360381019061045d9190612082565b610a71565b60405161046f91906120be565b60405180910390f35b610492600480360381019061048d9190612082565b610a8e565b005b6104ae60048036038101906104a991906120d9565b610ae7565b6040516104bb91906120be565b60405180910390f35b6104de60048036038101906104d99190612119565b610b42565b005b6104e8610c3a565b6040516104f59190611db5565b60405180910390f35b610506610c5e565b6040516105139190611d28565b60405180910390f35b61053660048036038101906105319190611dd0565b610c64565b005b610552600480360381019061054d9190611e88565b610c86565b005b60007f7965db0b000000000000000000000000000000000000000000000000000000007bffffffffffffffffffffffffffffffffffffffffffffffffffffffff1916827bffffffffffffffffffffffffffffffffffffffffffffffffffffffff191614806105c757506105c682610ca2565b5b9050919050565b7f000000000000000000000000000000000000000000000000000000000000000081565b60036020528060005260406000206000915090505481565b6000806000838152602001908152602001600020600101549050919050565b6106328261060a565b61063b81610d0c565b6106458383610d20565b50505050565b610653610e11565b73ffffffffffffffffffffffffffffffffffffffff168173ffffffffffffffffffffffffffffffffffffffff16146106b7576040517f6697b23200000000000000000000000000000000000000000000000000000000815260040160405180910390fd5b6106c18282610e19565b505050565b7f000000000000000000000000000000000000000000000000000000000000000081565b7fe6d0a14b8134c84a65c7cf20ffb6b1f4ac4d1c928780be91a1447e59a8cfec3e81565b7f000000000000000000000000000000000000000000000000000000000000000081565b6002602052816000526040600020602052806000526040600020600091509150505481565b600061076282610f0b565b905061076e8133611235565b5050565b6000339050600083839050905060005b818110156107d65760006107bc8686848181106107a2576107a161216c565b5b90506020020160208101906107b79190611ce2565b610f0b565b90506107c88185611235565b508080600101915050610782565b5050505050565b7f000000000000000000000000000000000000000000000000000000000000000081565b600083839050905060005b8181101561086057600061084686868481811061082c5761082b61216c565b5b90506020020160208101906108419190611ce2565b610f0b565b90506108528185611235565b50808060010191505061080c565b5050505050565b600061087360046117ee565b9050808310610882575061099b565b6000828461089091906121ca565b90508181111561089e578190505b60008490505b818110156109975760006108c282600461180390919063ffffffff16565b9050600061090d600660008473ffffffffffffffffffffffffffffffffffffffff1673ffffffffffffffffffffffffffffffffffffffff1681526020019081526020016000206117ee565b905060005b8181101561098757600061096d82600660008773ffffffffffffffffffffffffffffffffffffffff1673ffffffffffffffffffffffffffffffffffffffff16815260200190815260200160002061180390919063ffffffff16565b90506109798185611235565b508080600101915050610912565b50505080806001019150506108a4565b5050505b5050565b60006109e8600660008473ffffffffffffffffffffffffffffffffffffffff1673ffffffffffffffffffffffffffffffffffffffff1681526020019081526020016000206117ee565b9050919050565b60006109fb60046117ee565b905090565b600080600084815260200190815260200160002060000160008373ffffffffffffffffffffffffffffffffffffffff1673ffffffffffffffffffffffffffffffffffffffff16815260200190815260200160002060009054906101000a900460ff16905092915050565b6000801b81565b6000610a8782600461180390919063ffffffff16565b9050919050565b6000801b610a9b81610d0c565b60006001549050826001819055507f63ef1bc0d9e19092703f1da985d1c9b29d193987b0f4eb90a58731c007b9ad4d8184604051610ada9291906121fe565b60405180910390a1505050565b6000610b3a82600660008673ffffffffffffffffffffffffffffffffffffffff1673ffffffffffffffffffffffffffffffffffffffff16815260200190815260200160002061180390919063ffffffff16565b905092915050565b6000610b8b600660008673ffffffffffffffffffffffffffffffffffffffff1673ffffffffffffffffffffffffffffffffffffffff1681526020019081526020016000206117ee565b9050808310610b9a5750610c35565b60008284610ba891906121ca565b905081811115610bb6578190505b60008490505b81811015610c31576000610c1782600660008a73ffffffffffffffffffffffffffffffffffffffff1673ffffffffffffffffffffffffffffffffffffffff16815260200190815260200160002061180390919063ffffffff16565b9050610c238188611235565b508080600101915050610bbc565b5050505b505050565b7f036260aeac010e08df5f3b2698baa6836e14e4c7243ae53f5b6539ed5f35adfa81565b60015481565b610c6d8261060a565b610c7681610d0c565b610c808383610e19565b50505050565b6000610c9183610f0b565b9050610c9d8183611235565b505050565b60007f01ffc9a7000000000000000000000000000000000000000000000000000000007bffffffffffffffffffffffffffffffffffffffffffffffffffffffff1916827bffffffffffffffffffffffffffffffffffffffffffffffffffffffff1916149050919050565b610d1d81610d18610e11565b61181d565b50565b6000610d2c8383610a00565b610e0657600160008085815260200190815260200160002060000160008473ffffffffffffffffffffffffffffffffffffffff1673ffffffffffffffffffffffffffffffffffffffff16815260200190815260200160002060006101000a81548160ff021916908315150217905550610da3610e11565b73ffffffffffffffffffffffffffffffffffffffff168273ffffffffffffffffffffffffffffffffffffffff16847f2f8788117e7eff1d82e926ec794901d17c78024a50270940304540a733656f0d60405160405180910390a460019050610e0b565b600090505b92915050565b600033905090565b6000610e258383610a00565b15610f0057600080600085815260200190815260200160002060000160008473ffffffffffffffffffffffffffffffffffffffff1673ffffffffffffffffffffffffffffffffffffffff16815260200190815260200160002060006101000a81548160ff021916908315150217905550610e9d610e11565b73ffffffffffffffffffffffffffffffffffffffff168273ffffffffffffffffffffffffffffffffffffffff16847ff6391f5c32d9c69d2a47ea670b442974b53935d1edc7fd64eb21e047a839171b60405160405180910390a460019050610f05565b600090505b92915050565b60008073ffffffffffffffffffffffffffffffffffffffff168273ffffffffffffffffffffffffffffffffffffffff1603610f7b576040517f08c379a0000000000000000000000000000000000000000000000000000000008152600401610f7290612284565b60405180910390fd5b7f000000000000000000000000000000000000000000000000000000000000000073ffffffffffffffffffffffffffffffffffffffff1663464d225a836040518263ffffffff1660e01b8152600401610fd491906120be565b602060405180830381865afa158015610ff1573d6000803e3d6000fd5b505050506040513d601f19601f8201168201806040525081019061101591906122d0565b1561102257819050611134565b60007f000000000000000000000000000000000000000000000000000000000000000073ffffffffffffffffffffffffffffffffffffffff16634f51e294846040518263ffffffff1660e01b815260040161107d91906120be565b602060405180830381865afa15801561109a573d6000803e3d6000fd5b505050506040513d601f19601f820116820180604052508101906110be9190612312565b9050600073ffffffffffffffffffffffffffffffffffffffff168173ffffffffffffffffffffffffffffffffffffffff160361112f576040517f08c379a00000000000000000000000000000000000000000000000000000000081526004016111269061238b565b60405180910390fd5b809150505b7f000000000000000000000000000000000000000000000000000000000000000073ffffffffffffffffffffffffffffffffffffffff168173ffffffffffffffffffffffffffffffffffffffff166338d52e0f6040518163ffffffff1660e01b8152600401602060405180830381865afa1580156111b6573d6000803e3d6000fd5b505050506040513d601f19601f820116820180604052508101906111da9190612312565b73ffffffffffffffffffffffffffffffffffffffff1614611230576040517f08c379a0000000000000000000000000000000000000000000000000000000008152600401611227906123f7565b60405180910390fd5b919050565b60008273ffffffffffffffffffffffffffffffffffffffff166370a08231836040518263ffffffff1660e01b815260040161127091906120be565b602060405180830381865afa15801561128d573d6000803e3d6000fd5b505050506040513d601f19601f820116820180604052508101906112b1919061242c565b9050600080821461133b578373ffffffffffffffffffffffffffffffffffffffff166307a2d13a836040518263ffffffff1660e01b81526004016112f59190611d28565b602060405180830381865afa158015611312573d6000803e3d6000fd5b505050506040513d601f19601f82011682018060405250810190611336919061242c565b61133e565b60005b90506000600260008573ffffffffffffffffffffffffffffffffffffffff1673ffffffffffffffffffffffffffffffffffffffff16815260200190815260200160002060008673ffffffffffffffffffffffffffffffffffffffff1673ffffffffffffffffffffffffffffffffffffffff16815260200190815260200160002054905081600260008673ffffffffffffffffffffffffffffffffffffffff1673ffffffffffffffffffffffffffffffffffffffff16815260200190815260200160002060008773ffffffffffffffffffffffffffffffffffffffff1673ffffffffffffffffffffffffffffffffffffffff168152602001908152602001600020819055508082106114af5780826114559190612459565b600360008673ffffffffffffffffffffffffffffffffffffffff1673ffffffffffffffffffffffffffffffffffffffff16815260200190815260200160002060008282546114a391906121ca565b92505081905550611511565b81816114bb9190612459565b600360008673ffffffffffffffffffffffffffffffffffffffff1673ffffffffffffffffffffffffffffffffffffffff16815260200190815260200160002060008282546115099190612459565b925050819055505b60015482106115865761152e84600461186e90919063ffffffff16565b5061158085600660008773ffffffffffffffffffffffffffffffffffffffff1673ffffffffffffffffffffffffffffffffffffffff16815260200190815260200160002061186e90919063ffffffff16565b50611694565b6115d785600660008773ffffffffffffffffffffffffffffffffffffffff1673ffffffffffffffffffffffffffffffffffffffff16815260200190815260200160002061189e90919063ffffffff16565b1561162f5761162d85600660008773ffffffffffffffffffffffffffffffffffffffff1673ffffffffffffffffffffffffffffffffffffffff1681526020019081526020016000206118ce90919063ffffffff16565b505b6000611678600660008773ffffffffffffffffffffffffffffffffffffffff1673ffffffffffffffffffffffffffffffffffffffff1681526020019081526020016000206117ee565b03611693576116918460046118ce90919063ffffffff16565b505b5b60006116de600360008773ffffffffffffffffffffffffffffffffffffffff1673ffffffffffffffffffffffffffffffffffffffff168152602001908152602001600020546118fe565b90507f000000000000000000000000000000000000000000000000000000000000000073ffffffffffffffffffffffffffffffffffffffff16631b16777786836040518363ffffffff1660e01b815260040161173b9291906124b8565b6020604051808303816000875af115801561175a573d6000803e3d6000fd5b505050506040513d601f19601f8201168201806040525081019061177e91906122d0565b508573ffffffffffffffffffffffffffffffffffffffff168573ffffffffffffffffffffffffffffffffffffffff167f24dc70e08a5485248aec1cbfe31bee97079db3c4e9cf1281b5f56a70ea80672f85846040516117de9291906124e1565b60405180910390a3505050505050565b60006117fc82600001611962565b9050919050565b60006118128360000183611973565b60001c905092915050565b6118278282610a00565b61186a5780826040517fe2517d3f00000000000000000000000000000000000000000000000000000000815260040161186192919061250a565b60405180910390fd5b5050565b6000611896836000018373ffffffffffffffffffffffffffffffffffffffff1660001b61199e565b905092915050565b60006118c6836000018373ffffffffffffffffffffffffffffffffffffffff1660001b611a0e565b905092915050565b60006118f6836000018373ffffffffffffffffffffffffffffffffffffffff1660001b611a31565b905092915050565b60006fffffffffffffffffffffffffffffffff801682111561195a576080826040517f6dfcc65000000000000000000000000000000000000000000000000000000000815260040161195192919061257b565b60405180910390fd5b819050919050565b600081600001805490509050919050565b600082600001828154811061198b5761198a61216c565b5b9060005260206000200154905092915050565b60006119aa8383611a0e565b611a03578260000182908060018154018082558091505060019003906000526020600020016000909190919091505582600001805490508360010160008481526020019081526020016000208190555060019050611a08565b600090505b92915050565b600080836001016000848152602001908152602001600020541415905092915050565b60008083600101600084815260200190815260200160002054905060008114611b39576000600182611a639190612459565b9050600060018660000180549050611a7b9190612459565b9050808214611aea576000866000018281548110611a9c57611a9b61216c565b5b9060005260206000200154905080876000018481548110611ac057611abf61216c565b5b90600052602060002001819055508387600101600083815260200190815260200160002081905550505b85600001805480611afe57611afd6125a4565b5b600190038181906000526020600020016000905590558560010160008681526020019081526020016000206000905560019350505050611b3f565b60009150505b92915050565b600080fd5b600080fd5b60007fffffffff0000000000000000000000000000000000000000000000000000000082169050919050565b611b8481611b4f565b8114611b8f57600080fd5b50565b600081359050611ba181611b7b565b92915050565b600060208284031215611bbd57611bbc611b45565b5b6000611bcb84828501611b92565b91505092915050565b60008115159050919050565b611be981611bd4565b82525050565b6000602082019050611c046000830184611be0565b92915050565b600073ffffffffffffffffffffffffffffffffffffffff82169050919050565b6000819050919050565b6000611c4f611c4a611c4584611c0a565b611c2a565b611c0a565b9050919050565b6000611c6182611c34565b9050919050565b6000611c7382611c56565b9050919050565b611c8381611c68565b82525050565b6000602082019050611c9e6000830184611c7a565b92915050565b6000611caf82611c0a565b9050919050565b611cbf81611ca4565b8114611cca57600080fd5b50565b600081359050611cdc81611cb6565b92915050565b600060208284031215611cf857611cf7611b45565b5b6000611d0684828501611ccd565b91505092915050565b6000819050919050565b611d2281611d0f565b82525050565b6000602082019050611d3d6000830184611d19565b92915050565b6000819050919050565b611d5681611d43565b8114611d6157600080fd5b50565b600081359050611d7381611d4d565b92915050565b600060208284031215611d8f57611d8e611b45565b5b6000611d9d84828501611d64565b91505092915050565b611daf81611d43565b82525050565b6000602082019050611dca6000830184611da6565b92915050565b60008060408385031215611de757611de6611b45565b5b6000611df585828601611d64565b9250506020611e0685828601611ccd565b9150509250929050565b6000611e1b82611c56565b9050919050565b611e2b81611e10565b82525050565b6000602082019050611e466000830184611e22565b92915050565b6000611e5782611c56565b9050919050565b611e6781611e4c565b82525050565b6000602082019050611e826000830184611e5e565b92915050565b60008060408385031215611e9f57611e9e611b45565b5b6000611ead85828601611ccd565b9250506020611ebe85828601611ccd565b9150509250929050565b600080fd5b600080fd5b600080fd5b60008083601f840112611eed57611eec611ec8565b5b8235905067ffffffffffffffff811115611f0a57611f09611ecd565b5b602083019150836020820283011115611f2657611f25611ed2565b5b9250929050565b60008060208385031215611f4457611f43611b45565b5b600083013567ffffffffffffffff811115611f6257611f61611b4a565b5b611f6e85828601611ed7565b92509250509250929050565b6000611f8582611c56565b9050919050565b611f9581611f7a565b82525050565b6000602082019050611fb06000830184611f8c565b92915050565b600080600060408486031215611fcf57611fce611b45565b5b600084013567ffffffffffffffff811115611fed57611fec611b4a565b5b611ff986828701611ed7565b9350935050602061200c86828701611ccd565b9150509250925092565b61201f81611d0f565b811461202a57600080fd5b50565b60008135905061203c81612016565b92915050565b6000806040838503121561205957612058611b45565b5b60006120678582860161202d565b92505060206120788582860161202d565b9150509250929050565b60006020828403121561209857612097611b45565b5b60006120a68482850161202d565b91505092915050565b6120b881611ca4565b82525050565b60006020820190506120d360008301846120af565b92915050565b600080604083850312156120f0576120ef611b45565b5b60006120fe85828601611ccd565b925050602061210f8582860161202d565b9150509250929050565b60008060006060848603121561213257612131611b45565b5b600061214086828701611ccd565b93505060206121518682870161202d565b92505060406121628682870161202d565b9150509250925092565b7f4e487b7100000000000000000000000000000000000000000000000000000000600052603260045260246000fd5b7f4e487b7100000000000000000000000000000000000000000000000000000000600052601160045260246000fd5b60006121d582611d0f565b91506121e083611d0f565b92508282019050808211156121f8576121f761219b565b5b92915050565b60006040820190506122136000830185611d19565b6122206020830184611d19565b9392505050565b600082825260208201905092915050565b7f7661756c74000000000000000000000000000000000000000000000000000000600082015250565b600061226e600583612227565b915061227982612238565b602082019050919050565b6000602082019050818103600083015261229d81612261565b9050919050565b6122ad81611bd4565b81146122b857600080fd5b50565b6000815190506122ca816122a4565b92915050565b6000602082840312156122e6576122e5611b45565b5b60006122f4848285016122bb565b91505092915050565b60008151905061230c81611cb6565b92915050565b60006020828403121561232857612327611b45565b5b6000612336848285016122fd565b91505092915050565b7f696e76616c6964207661756c7400000000000000000000000000000000000000600082015250565b6000612375600d83612227565b91506123808261233f565b602082019050919050565b600060208201905081810360008301526123a481612368565b9050919050565b7f6173736574206d69736d61746368000000000000000000000000000000000000600082015250565b60006123e1600e83612227565b91506123ec826123ab565b602082019050919050565b60006020820190508181036000830152612410816123d4565b9050919050565b60008151905061242681612016565b92915050565b60006020828403121561244257612441611b45565b5b600061245084828501612417565b91505092915050565b600061246482611d0f565b915061246f83611d0f565b92508282039050818111156124875761248661219b565b5b92915050565b60006fffffffffffffffffffffffffffffffff82169050919050565b6124b28161248d565b82525050565b60006040820190506124cd60008301856120af565b6124da60208301846124a9565b9392505050565b60006040820190506124f66000830185611d19565b61250360208301846124a9565b9392505050565b600060408201905061251f60008301856120af565b61252c6020830184611da6565b9392505050565b6000819050919050565b600060ff82169050919050565b600061256561256061255b84612533565b611c2a565b61253d565b9050919050565b6125758161254a565b82525050565b6000604082019050612590600083018561256c565b61259d6020830184611d19565b9392505050565b7f4e487b7100000000000000000000000000000000000000000000000000000000600052603160045260246000fdfea2646970667358221220aa6845aadc91f533711fc759c326b62963966914cf7b641487af483c88aca88c64736f6c634300081c0033",
  "linkReferences": {},
  "deployedLinkReferences": {}
}