{
  "_format": "hh-sol-artifact-1",
  "contractName": "MockERC20",
  "sourceName": "contracts/mocks/MockERC20.sol",
  "abi": [
    {
      "inputs": [
        {
          "internalType": "string",
          "name": "_name",
          "type": "string"
        },
        {
          "internalType": "string",
          "name": "_symbol",
          "type": "string"
        },
        {
          "internalType": "uint8",
          "name": "_decimals",
          "type": "uint8"
        }
      ],
      "stateMutability": "nonpayable",
      "type": "constructor"
    },
    {
      "inputs": [
        {
          "internalType": "address",
          "name": "",
          "type": "address"
        }
      ],
      "name": "balanceOf",
      "outputs": [
        {
          "internalType": "uint256",
          "name": "",
          "type": "uint256"
        }
      ],
      "stateMutability": "view",
      "type": "function"
    },
    {
      "inputs": [],
      "name": "decimals",
      "outputs": [
        {
          "internalType": "uint8",
          "name": "",
          "type": "uint8"
        }
      ],
      "stateMutability": "view",
      "type": "function"
    },
    {
      "inputs": [
        {
          "internalType": "address",
          "name": "to",
          "type": "address"
        },
        {
          "internalType": "uint256",
          "name": "amount",
          "type": "uint256"
        }
      ],
      "name": "mint",
      "outputs": [],
      "stateMutability": "nonpayable",
      "type": "function"
    },
    {
      "inputs": [],
      "name": "name",
      "outputs": [
        {
          "internalType": "string",
          "name": "",
          "type": "string"
        }
      ],
      "stateMutability": "view",
      "type": "function"
    },
    {
      "inputs": [],
      "name": "symbol",
      "outputs": [
        {
          "internalType": "string",
          "name": "",
          "type": "string"
        }
      ],
      "stateMutability": "view",
      "type": "function"
    }
  ],
  "bytecode": "0x60a060405234801561001057600080fd5b50604051610b75380380610b7583398181016040528101906100329190610216565b826000908161004191906104c2565b50816001908161005191906104c2565b508060ff1660808160ff1681525050505050610594565b6000604051905090565b600080fd5b600080fd5b600080fd5b600080fd5b6000601f19601f8301169050919050565b7f4e487b7100000000000000000000000000000000000000000000000000000000600052604160045260246000fd5b6100cf82610086565b810181811067ffffffffffffffff821117156100ee576100ed610097565b5b80604052505050565b6000610101610068565b905061010d82826100c6565b919050565b600067ffffffffffffffff82111561012d5761012c610097565b5b61013682610086565b9050602081019050919050565b60005b83811015610161578082015181840152602081019050610146565b60008484015250505050565b600061018061017b84610112565b6100f7565b90508281526020810184848401111561019c5761019b610081565b5b6101a7848285610143565b509392505050565b600082601f8301126101c4576101c361007c565b5b81516101d484826020860161016d565b91505092915050565b600060ff82169050919050565b6101f3816101dd565b81146101fe57600080fd5b50565b600081519050610210816101ea565b92915050565b60008060006060848603121561022f5761022e610072565b5b600084015167ffffffffffffffff81111561024d5761024c610077565b5b610259868287016101af565b935050602084015167ffffffffffffffff81111561027a57610279610077565b5b610286868287016101af565b925050604061029786828701610201565b9150509250925092565b600081519050919050565b7f4e487b7100000000000000000000000000000000000000000000000000000000600052602260045260246000fd5b600060028204905060018216806102f357607f821691505b602082108103610306576103056102ac565b5b50919050565b60008190508160005260206000209050919050565b60006020601f8301049050919050565b600082821b905092915050565b60006008830261036e7fffffffffffffffffffffffffffffffffffffffffffffffffffffffffffffffff82610331565b6103788683610331565b95508019841693508086168417925050509392505050565b6000819050919050565b6000819050919050565b60006103bf6103ba6103b584610390565b61039a565b610390565b9050919050565b6000819050919050565b6103d9836103a4565b6103ed6103e5826103c6565b84845461033e565b825550505050565b600090565b6104026103f5565b61040d8184846103d0565b505050565b5b81811015610431576104266000826103fa565b600181019050610413565b5050565b601f821115610476576104478161030c565b61045084610321565b8101602085101561045f578190505b61047361046b85610321565b830182610412565b50505b505050565b600082821c905092915050565b60006104996000198460080261047b565b1980831691505092915050565b60006104b28383610488565b9150826002028217905092915050565b6104cb826102a1565b67ffffffffffffffff8111156104e4576104e3610097565b5b6104ee82546102db565b6104f9828285610435565b600060209050601f83116001811461052c576000841561051a578287015190505b61052485826104a6565b86555061058c565b601f19841661053a8661030c565b60005b828110156105625784890151825560018201915060208501945060208101905061053d565b8683101561057f578489015161057b601f891682610488565b8355505b6001600288020188555050505b505050505050565b6080516105c66105af600039600061019201526105c66000f3fe608060405234801561001057600080fd5b50600436106100575760003560e01c806306fdde031461005c578063313ce5671461007a57806340c10f191461009857806370a08231146100b457806395d89b41146100e4575b600080fd5b610064610102565b6040516100719190610344565b60405180910390f35b610082610190565b60405161008f9190610382565b60405180910390f35b6100b260048036038101906100ad9190610436565b6101b4565b005b6100ce60048036038101906100c99190610476565b61020e565b6040516100db91906104b2565b60405180910390f35b6100ec610226565b6040516100f99190610344565b60405180910390f35b6000805461010f906104fc565b80601f016020809104026020016040519081016040528092919081815260200182805461013b906104fc565b80156101885780601f1061015d57610100808354040283529160200191610188565b820191906000526020600020905b81548152906001019060200180831161016b57829003601f168201915b505050505081565b7f000000000000000000000000000000000000000000000000000000000000000081565b80600260008473ffffffffffffffffffffffffffffffffffffffff1673ffffffffffffffffffffffffffffffffffffffff1681526020019081526020016000206000828254610203919061055c565b925050819055505050565b60026020528060005260406000206000915090505481565b60018054610233906104fc565b80601f016020809104026020016040519081016040528092919081815260200182805461025f906104fc565b80156102ac5780601f10610281576101008083540402835291602001916102ac565b820191906000526020600020905b81548152906001019060200180831161028f57829003601f168201915b505050505081565b600081519050919050565b600082825260208201905092915050565b60005b838110156102ee5780820151818401526020810190506102d3565b60008484015250505050565b6000601f19601f8301169050919050565b6000610316826102b4565b61032081856102bf565b93506103308185602086016102d0565b610339816102fa565b840191505092915050565b6000602082019050818103600083015261035e818461030b565b905092915050565b600060ff82169050919050565b61037c81610366565b82525050565b60006020820190506103976000830184610373565b92915050565b600080fd5b600073ffffffffffffffffffffffffffffffffffffffff82169050919050565b60006103cd826103a2565b9050919050565b6103dd816103c2565b81146103e857600080fd5b50565b6000813590506103fa816103d4565b92915050565b6000819050919050565b61041381610400565b811461041e57600080fd5b50565b6000813590506104308161040a565b92915050565b6000806040838503121561044d5761044c61039d565b5b600061045b858286016103eb565b925050602061046c85828601610421565b9150509250929050565b60006020828403121561048c5761048b61039d565b5b600061049a848285016103eb565b91505092915050565b6104ac81610400565b82525050565b60006020820190506104c760008301846104a3565b92915050565b7f4e487b7100000000000000000000000000000000000000000000000000000000600052602260045260246000fd5b6000600282049050600182168061051457607f821691505b602082108103610527576105266104cd565b5b50919050565b7f4e487b7100000000000000000000000000000000000000000000000000000000600052601160045260246000fd5b600061056782610400565b915061057283610400565b925082820190508082111561058a5761058961052d565b5b9291505056fea2646970667358221220e401d32bde4e7f153e9259851dc2ec8bfada8326266d38215085dde4806e623564736f6c634300081c0033",
  "linkReferences": {},
  "deployedLinkReferences": {}
}